S00C000054616E6B2E737265638A
S11300000C9434000C943E000C943E000C943E007E
S11300100C943E000C943E000C943E000C943E0064
S11300200C943E000C943E000C943E000C943E0054
S11300300C943E000C943E000C943E000C943E0044
S11300400C943E000C943E000C943E000C943E0034
S11300500C943E000C943E000C943E000C943E0024
S11300600C943E000C943E0011241FBECFEFD8E048
S1130070DEBFCDBF0E9440000C9412010C9400001E
S113008048E060E875E280E090E00E949A005098B1
S11300900E9456000E94E800882324F4880F0E94DE
S11300A06E00F8CF880F0E948400F4CF239A2B9817
S11300B0539A5B9881EA8093B00086E08093B10004
S11300C01092B3001092B4008AB1806F8AB98BB1D8
S11300D080658BB98BB18F758BB90895882354F4DF
S11300E05C9A5D98880F8E5F8F3108F480E080936E
S11300F0B40008955C985D9A880F81958F3108F457
S113010080E08093B4000895882354F45E9A5F9845
S1130110880F8E5F8F3108F480E08093B3000895D8
S11301205E985F9A880F81958F3108F480E0809300
S1130130B3000895CF93C42F28E12093C100DC01BC
S1130140CB01880F991FAA1FBB1F880F991FAA1FD5
S1130150BB1F9C01AD01220F331F441F551F220FEB
S1130160331F441F551F60E074E284EF90E00E9447
S1130170F000215031093093C5002093C400C630EB
S113018071F018F4C53031F01CC0C73071F0C830BC
S113019091F017C0E2ECF0E08081808317C0E2ECBC
S11301A0F0E080818260808311C0E2ECF0E0808125
S11301B0846080830BC0E2ECF0E080818660808301
S11301C005C0E2ECF0E0808186608083CF910895E1
S11301D0E0ECF0E080818823ECF78091C60008957C
S11301E0A1E21A2EAA1BBB1BFD010DC0AA1FBB1F37
S11301F0EE1FFF1FA217B307E407F50720F0A21BA9
S1130200B30BE40BF50B661F771F881F991F1A9415
S113021069F760957095809590959B01AC01BD013F
S10B0220CF010895F894FFCF0B
S9030000FC
