S0120000436F6E74726F6C6C65722E73726563EE
S11300000C9434000C943E000C943E000C943E007E
S11300100C943E000C943E000C943E000C943E0064
S11300200C943E000C943E000C943E000C943E0054
S11300300C943E000C943E000C943E000C943E0044
S11300400C943E000C943E000C943E000C943E0034
S11300500C943E000C943E000C943E000C943E0024
S11300600C943E000C943E0011241FBECFEFD8E048
S1130070DEBFCDBF0E946D000C942D010C940000D6
S113008017B880E480937C00EAE7F0E08081806820
S1130090808380818F7E80838081876080830895C0
S11300A080E480937C00EAE7F0E0808180648083D0
S11300B0808186FDFDCF089581E480937C00EAE78A
S11300C0F0E0808180648083808186FDFDCF089587
S11300D08091780090917900089548E060E875E295
S11300E080E090E00E94B5000E9440000E94500011
S11300F02FEF80E792E0215080409040E1F700C06C
S113010000000E946800959587959595879595952B
S1130110879580680E9403012FEF81EE94E02150BF
S113012080409040E1F700C000000E945C002FEF87
S113013080E792E0215080409040E1F700C0000049
S11301400E946800959587959595879595958795CF
S11301508F770E9403012FEF81EE94E021508040BD
S11301609040E1F700C00000C1CFCF93C42F28E135
S11301702093C100DC01CB01880F991FAA1FBB1F6C
S1130180880F991FAA1FBB1F9C01AD01220F331FAB
S1130190441F551F220F331F441F551F60E074E294
S11301A084EF90E00E940B01215031093093C50087
S11301B02093C400C63071F018F4C53031F01CC06F
S11301C0C73071F0C83091F017C0E2ECF0E08081E4
S11301D0808317C0E2ECF0E080818260808311C0EC
S11301E0E2ECF0E08081846080830BC0E2ECF0E01C
S11301F080818660808305C0E2ECF0E080818660C7
S11302008083CF910895E0ECF0E0908195FFFDCFDD
S11302108093C6000895A1E21A2EAA1BBB1BFD0100
S11302200DC0AA1FBB1FEE1FFF1FA217B307E407D1
S1130230F50720F0A21BB30BE40BF50B661F771F29
S1130240881F991F1A9469F7609570958095909509
S11102509B01AC01BD01CF010895F894FFCFCE
S9030000FC
